:020000041000EA
:1000000000B5324B212058609868022188439860DF
:10001000D860186158612E4B002199600221596106
:100020000121F02299502B49196001219960352056
:1000300000F044F80222904214D00621196600F024
:1000400034F8196E01211966002018661A6600F04E
:100050002CF8196E196E196E052000F02FF8012189
:100060000842F9D1002199601B49196000215960AB
:100070001A491B48016001219960EB211966A021F2
:10008000196600F012F800219960164914480160C1
:100090000121996001BC002800D000471248134993
:1000A000086003C880F30888084703B5996A0420EC
:1000B0000142FBD001200142F8D103BD02B5186610
:1000C0001866FFF7F2FF186E186E02BD00000240BE
:1000D000000000180000070000035F00212200005C
:1000E000F4000018222000A00001001008ED00E03C
:1000F00000000000000000000000000074B24E7A12
:1001000000200420F7010010C3010010C5010010F9
:10011000C1010010C1010010C1010010C101001097
:10012000C1010010C1010010C1010010C701001081
:10013000C1010010C1010010C9010010CB01001065
:10014000CD010010CD010010CD010010CD01001037
:10015000CD010010CD010010CD010010CD01001027
:10016000CD010010CD010010CD010010CD01001017
:10017000CD010010CD010010CD010010CD01001007
:10018000CD010010CD010010CD010010CD010010F7
:10019000CD010010CD010010CD010010CD010010E7
:1001A000CD010010CD010010CD010010CD010010D7
:1001B000CD010010CD010010CD010010CD010010C7
:1001C00000BE00BE00BE00BE00BE00BEEFF3058054
:1001D000103800BEF2EB8871408F0010608F001065
:1001E0003402001090A31AE700201F49086006C8D7
:1001F00081F3088810471D48006800282FD10DA4FE
:100200000ECC002902D000F012F8F9E71849194A7B
:10021000002000E001C19142FCD1174988471749ED
:1002200088471749884700BEFDE701C901C29A42C5
:10023000FBD37047608F0010C0000020200C00200E
:10024000C09A00100000042000000420C09A001092
:10025000001004200010042000000000704709482E
:1002600003F004F90047000008ED00E0000000D0B2
:10027000200C0020A0190020892100102903001063
:10028000492100105756000006005250ABB360538E
:10029000D488001006005250861C0302E488001027
:1002A000060052505422A29DF088001005005250C2
:1002B000DE65F468C09A0010F8B5C04606480749E4
:1002C000091A8B10C90FC91810B5491003D0044B77
:1002D000002B00D0984710BD200C0020200C0020DF
:1002E00000000000054B10B5002B03D00449054861
:1002F00000E000BFFFF7E2FF10BDC04600000000B5
:100300002C170020F079001010B504001F2100F018
:10031000AFF800220021200000F0C2F800212000E8
:1003200000F0D8F810BD0000F0B583B004F090FFE5
:100330003C4804F051FF07F09FFA1A20FFF7E4FF52
:10034000394B1B68E022D2011340384A1360384B06
:1003500004221A60344B1B68DB05FBD5324B58680E
:100360000004000C04F0E6FC324904F0DAFC041C42
:10037000314904F0D6FC051C211C304804F0B1FCC6
:10038000011C281C04F0B7FC041C04F0FFFC04F062
:10039000F3FC2B4A2B4B03F028FB2B4A2B4B03F08F
:1003A000FDFA06000F00201C04F0F0FC04F0E4FC51
:1003B0000022274B03F024FF264A274B03F015FBAE
:1003C00002000B003000390003F0E8FA02000B00D5
:1003D0000020224903F0EBFA03F0C8FB04F0CCFC48
:1003E0001F4A204B03F0D1FA03F0C0FB041C1E4946
:1003F00004F097FC8421C90504F078FC04F0BCFCEF
:1004000006000F00194D201C04F0B6FC009001916D
:1004100032003B00280004F00FFFFA20800001F0BA
:1004200082F994E7F079001000C0044000D0044045
:1004300000E004403333533A00401C46333353400A
:10044000C2C3B46FEEAF2E3F90B8DE6EFD7F523F59
:1004500000000840190D1714EB88773E0000F03FAC
:1004600066666666661271406666E63F107A001040
:1004700010B58300084A944663441A6840246240D9
:10048000803414408022520113431C60C000034B8F
:100490009C466044416010BD04C0014000400140E2
:1004A00080000B4B9C46604400290DD00823002A95
:1004B0000CD004221343026853400C221A408023BC
:1004C0005B0103431A6070470023F0E70022F1E765
:1004D00004C00140002909D08000094B9C466044BB
:1004E00080239B01034340221A6070478000044B25
:1004F0009C466044C0239B01034340221A60F4E7FA
:1005000004C00140034B1B6802201840431E984161
:10051000C0B2704700C00640EFF3108072B6034BC4
:100520001B68002BFBD0BFF35F8F70472C0100D0FE
:10053000BFF35F8F024B00221A6080F31088704770
:100540002C0100D0F8B506000C001500FFF7E4FF01
:10055000E308F718F15C07222240012393400B4285
:1005600005D1DBB20B433B70FFF7E2FFF8BD210082
:10057000280001F085FEF0B583B00600019114005B
:100580001F00FFF7C9FF00E00134BC420CD8E308AC
:10059000F518F35C0721214001228A401A42F3D169
:1005A000D2B21A432A7001E001246442FFF7C0FF6F
:1005B000002C02DB200003B0F0BD019B002BF9D022
:1005C000089801F05DFE0000002307E0054A9A1834
:1005D0009200BFF35F8F0021116001331F2BF5D90B
:1005E0007047C04640000034054A1078431CDBB217
:1005F0001370172B02D9130010221A707047C046CF
:10060000200B002010B582B00100054C054B009373
:100610001F2318222000FFF7AEFF02B010BDC04616
:1006200084120020347A0010074B9B681030800041
:100630001950BFF35F8FBFF35F8F044B0021196028
:1006400082F310887047C04600ED00E0240100D01E
:1006500010B50388DA0A1C2A05D15B055B15023345
:100660005B00C01810BD034B034A0448B12101F0E0
:100670006FFDC046507A0010CC7C0010687A0010E4
:1006800010B5091A0B1F0A4A88180A4A904208D85E
:10069000C90706D45B105B055B0D0748184380B2A1
:1006A00010BD064B064A0748A32101F051FDC04684
:1006B000FC070000FE0F000000E0FFFFA87A00101A
:1006C000C07C0010687A001010B5091A04394A0875
:1006D000090B08D14905490D064B0B430380064B16
:1006E0001343438010BD054B054A0648AB2101F07A
:1006F0002FFDC04600F0FFFF00F8FFFFD87A001082
:10070000947C0010687A001001238340034A10682B
:100710001840431E9841C0B27047C04600E100E057
:10072000002904D0034B1860034B18607047034B3B
:100730001860FBE780E200E000E100E080E100E01B
:1007400010B5012383401800FFF7EAFF10BD000039
:1007500001238340014A13607047C04600E200E075
:10076000024B9B6810308000C058704700ED00E0DD
:1007700010B5FFF7F5FF002805D0054BC01A2F284C
:1007800003D8012010BD0020FCE70020FAE7C04696
:10079000240B002070B504000D00EFF3108672B634
:1007A0000C4B1B68002BFBD0BFF35F8F2000FFF7C3
:1007B000D7FF094B984201D0A84205D13200290049
:1007C0002000FFF731FF70BD044B054A0548862124
:1007D00001F0BEFC240100D0CD010010E87A001029
:1007E000F47C0010687A0010F0B5DE4657464E469D
:1007F0004546E0B589B0814601911500EFF3108AB6
:1008000072B66D4B1B68002BFBD0BFF35F8F6B4B39
:1008100000269E57002E41DB7400A419A4006848EE
:1008200024180622A256654B1A70664B9A684B46EE
:1008300010339B00D35898461F00181A2F2839D917
:10084000614B984530D105AF604B3B8060497300E8
:100850009B46981980005A4B984640440230FFF757
:100860000FFF78805B4BBB80FF23BB71FD71019B49
:10087000079333005B449B00434407CF07C3012326
:100880001C43A046524641464846FFF7CDFE09B0FC
:10089000F0BCBB46B246A946A046F0BD4E4B4F4AFF
:1008A0004F48D72101F054FC4E4B4C4A4C48DE21B6
:1008B00001F04EFC01380C2102F02CFE002912D16F
:1008C00001239F43BB463B000027DA79AA4211D996
:1008D0000621595600290CDB4A005218920038496B
:1008E0001F008B18F1E7404B3C4A3D48EA2101F0DC
:1008F0002FFC1F00002F2ED005AB3C4A1A80813AF6
:100900005A800623FB560293002B17DA384805ABB2
:100910009B469880029A9A71DD71019A0792381D60
:100920002100FFF7ADFEB880BE71254B7200921911
:1009300092009B185A4613CA13C3A3E7381DFFF74A
:1009400087FE01007000801980001D4BC018043024
:10095000FFF796FEDBE705AF1C4B3B801C4973009D
:1009600002939B199B00164A90461A004244039238
:10097000901CFFF785FE7880039A101D5946FFF7FB
:100980007FFEB8801B4B5A464146521A5241534390
:100990001B0DBB71FD71019A0792029B9B199B0075
:1009A000434407CF07C3114B5A461380813B538002
:1009B00001231C43A04665E7240100D099190020BB
:1009C000240B002000ED00E0CD01001000A1FFFF8E
:1009D000540B002001BDFFFF207B0010DC7C0010C9
:1009E000687A0010487B0010707B001001480000FE
:1009F00001BD0000AAAA0000F0B5CE46474680B56A
:100A000083B006000D00EFF3108872B64F4B1B68E1
:100A1000002BFBD0BFF35F8F4D4B9A68340010342E
:100A2000A300D7584B4B9F4207D0AF4200D18BE079
:100A30000197494BFB1A2F2B09D942463900300048
:100A4000FFF7F2FD03B0C0BCB946B046F0BD3000C0
:100A5000FFF75AFE814600213000FFF771FEBFF319
:100A60005F8FEFF30581002901D08C4211D1012362
:100A7000019C9C430020A368AB4212D00622A256E0
:100A8000002A0DDB53009B189B00334A2000D4182A
:100A9000F1E7324B324A36213248FF3101F058FB40
:100AA0002000AB4249D106256557002D2BDB2A4B90
:100AB0006A00521992009B189A68A260DA79E27172
:100AC0009B795BB2A371002B0FDA2748A080224BE1
:100AD0006A00521992009B18244A11789971157076
:100AE00049463000FFF72CFEA7E768004019800058
:100AF000194BC0180430FFF7ABFD0100231D18008F
:100B0000FFF7BEFDE2E7002912D100280ED0FF2337
:100B10008371174B838015490B78A3710E4A154BCF
:100B2000A41A644163431B0D0B70D9E7094FF2E728
:100B30001149201DFFF7C8FDD2E7104B084A6A2172
:100B40000848FF3101F004FB024F76E7240100D092
:100B500000ED00E0CD010010240B0020E47B00102C
:100B6000AC7C0010687A001001BD000099190020CB
:100B700001BDFFFFAAAA00005E0B0020187C001038
:100B800070B5012202432E4BD31A2F2B28D8EFF336
:100B90000583002B2BD0EFF3108C72B6294909681E
:100BA0000029FBD0BFF35F8F254C274905002D1B83
:100BB0006D416943090D4CB2244989689B00C958AD
:100BC00091421BD00021032932D81D4B4A005218F4
:100BD00092009B189B795BB2A3421FD00131F2E7D0
:100BE0001B4B1C4AC7211C48490001F0B1FA1B4BA2
:100BF000184A92211848FF3101F0AAFA134A926864
:100C00001749D150174B1A7882711C70BFF35F8F50
:100C10000C4B00221A608CF3108870BD084B4A0000
:100C20005518AD005D19FF26AE710F4AAA80E9E79D
:100C30000E4B084AD1210848490001F089FAC04604
:100C4000240B0020240100D0AAAA000000ED00E03F
:100C5000207C0010787C0010687A0010487C00101E
:100C6000CD0100109919002001BDFFFF547C001038
:100C70000022044B02E0044902C30132072AFAD9D8
:100C80007047C04600E400E08080808010B582B0EC
:100C90000100074C074B0093052300222000FFF7BB
:100CA0006AFC002801DB1F23181A02B010BDC046E1
:100CB0009F1900205C7C0010024B9C466144890017
:100CC000016070474000003410B5002B02DB026069
:100CD000436010BD024B034A03483F2101F038FA3C
:100CE000107D0010247E00102C7D001070B582B0A5
:100CF000060014001D00FA2292000023069800212D
:100D000003F0D2FF02000B0012196B41002B09DB2C
:100D10006846FFF7D9FF009A019B3260736030008C
:100D200002B070BD01225242004BF1E7FFFFFF7F8E
:100D300010B582B0040000F075FD02000B0068469B
:100D4000FFF7C2FF009A019B22606360200002B09F
:100D500010BD30B585B004000D0002A8FFF7E8FF14
:100D6000029A039B00952000FFF7C0FF200005B00A
:100D700030BD10B50400FFF737FC01002000FFF77D
:100D80009BFFFF232371BFF35F8F10BD10B50400DD
:100D9000FFF72AFC01002000FFF78EFFFF232371DD
:100DA00000236371BFF35F8F10BD0000034B9C46AF
:100DB000614489000160BFF35F8F704740000034D9
:100DC00010B504000120FFF71DFC01002000FFF713
:100DD000EDFF10BD084B5B6A994209D8064A926A3A
:100DE000824207D2994201D0012002E0002000E0B7
:100DF000002070470120FCE70040054010B50029A5
:100E00000AD003681B7B8B4206D38068054B9C4647
:100E100061440901401810BD034B044A04483C21B9
:100E200001F096F9FFFFFF0F3C7E0010608100107B
:100E3000607E0010F8B504001700FFF7DFFF0668BA
:100E4000456839002000FFF7D9FF02684368012098
:100E5000AB4201D802D00020C0B2F8BDB242FBD8EC
:100E6000F9E7000010B5002B02DB0260436010BD03
:100E7000024B034A03483F2101F06AF9107D00103C
:100E80002C8100102C7D001010B582B00400049855
:100E9000059912184B41002B09DB6846FFF7E2FF6A
:100EA000009A019B22606360200002B010BD012205
:100EB0005242014BF1E7C046FFFFFF7F10B500290A
:100EC00008D0037B8B4205D300684B005B18033BC3
:100ED000C01810BD024B034A0348682101F038F9DD
:100EE000987E001008810010B47E001010B5437B7E
:100EF0008B4201D1012010BDFFF7E0FF8378002B6A
:100F000001D10020F7E70120F5E770B50400857BEB
:100F1000002D01D1280070BD2900FFF7CFFF4378D5
:100F2000A373002B00D1E37300238370437003701D
:100F3000F0E70000F8B506000C001500FFF7BEFF53
:100F40000700002C0DD0002D11D0AC4215D0290087
:100F50003000FFF7B3FF84703B78002B13D13D7056
:100F6000F8BD0A4B0A4A0B486F2101F0F1F80A4B11
:100F7000074A0848702101F0EBF8084B044A05487D
:100F8000712101F0E5F843703D70E9E7007F001042
:100F9000E4800010B47E00100C7F0010187F001059
:100FA00070B506000D001400002914D0002A14D0DA
:100FB000436880689847002806D022002900300046
:100FC000FFF7B8FF280007E02A0021003000FFF7F4
:100FD000B1FF200000E0100070BD0800FCE7000039
:100FE00070B504000D1E0CD0FFF768FF002383705E
:100FF00043700370617B2A002000FFF7D1FF60730C
:1010000070BD034B034A0448A52101F0A1F8C04676
:10101000307F0010F8800010B47E001070B504001E
:101020000D1E0FD0FFF762FF00280BD1E17B0029D6
:101030000ED1A37B002B03D1E37B002B0DD1A57335
:10104000E57370BD084B094A0948F62101F080F8A4
:101050002000FFF733FF4570EBE7064B034A0448D7
:10106000FB2101F075F8C046347F0010D4800010D9
:10107000B47E0010587F001010B5002907D0036817
:101080001B7B8B4203D3C0680139401810BD034B52
:10109000034A0448412101F05BF8C0463C7E001041
:1010A000C0800010607E001070B505000C000800C4
:1010B00000F094FC0949200000F0D4FBFFF794FAFB
:1010C000074B9C466044800068602C75D0231B064B
:1010D0001B786B75034BA400E55070BDF511001033
:1010E000400000344C1700200A4B1A68EFF31081BF
:1010F00072B61368002BFCD0BFF35F8F054B1B68E3
:10110000BFF35F8F00221A6081F3108840BF002078
:10111000002170476819002010B582B0040000F06B
:1011200081FB02000B006846FFF79CFE009A019BC2
:1011300022606360200002B010BD70B584B004006E
:1011400016001D0002A8FFF7E7FF029A039B009616
:1011500001952000FFF798FE200004B070BD00004C
:10116000F0B583B0070001921D000AAB1C780BABF1
:101170001E78002C0BD000682100FFF7B7FE002876
:1011800009D0194B194A1A48672100F0E1FF00689D
:10119000FFF7BBFE0400002C02D1200003B0F0BD1D
:1011A00021003800FFF72AFE019B03604560089B81
:1011B0008360099BC36038682100FFF711FFA042DC
:1011C000EBD1387D019A2B0000F094FB051E01D075
:1011D000002E04D00C9B002BDFD01D70DDE738689B
:1011E000210000F041FDF5E76C7F00101481001034
:1011F000607E0010F0B5DE4657464E464546E0B5E7
:101200008FB00B900021784B8200D458894682E041
:1012100029002000FFF7F2FD804602684368921B18
:10122000BB41002B09DD43461A685B680B9800F050
:1012300061FB00239846002689E0002B01D1002A9B
:10124000F1D10021584600F005FD0700A84215D154
:1012500043461A685B680892099343469E68DB68B8
:101260009846002E10D029002000FFF705FF0378D4
:1012700099461B021F432761002068E05B4B5C4AD4
:101280005C488E2100F064FF5B4B594A594892211B
:1012900000F05EFF2369002B77D0BB4219D106987E
:1012A0000799002342428B4100920193089A099BBF
:1012B0000CA8FFF7E9FD0C9A0D9B00210491013168
:1012C000039102954146019100962000FFF748FFE7
:1012D00016E04A4B464A4748A12100F039FF069ADA
:1012E000079B002B01D1002A52D120682900FFF76B
:1012F00095FE29002000FFF7BFFE0378013303703D
:10130000002323616268BFF35F8F13608AF3108844
:101310000120002861D00CA8FFF7FEFE0C9E0D9F57
:1013200000220023089209936268EFF3108A72B6D4
:101330001368002BFCD0BFF35F8F23689B465D7B57
:10134000002D00D064E70023984600260020636843
:10135000BFF35F8F00221A608AF31088002ED8D066
:101360004B461F022F4341463800B0470690079175
:101370006268EFF3108A72B61368002BFCD0BFF3DB
:101380005F8F079B002B00DA84E7079B002BA6DD0D
:101390002369002BA9D0BB4219D10CA8FFF7BCFED2
:1013A0000C9A0D9B06980799009001910CA8FFF7E5
:1013B0006BFD0C9A0D9B0021049101310391029564
:1013C0004146019100962000FFF7CAFE98E70B4BBB
:1013D000074A0848A42100F0BBFE0FB0F0BCBB4692
:1013E000B246A946A046F0BD4C170020947F0010DD
:1013F00044810010607E0010AC7F0010B87F0010A8
:1014000010B50C4B5B68002B04D00B480A21FFF78A
:1014100053FC10BD074C094A20682300102100F03E
:1014200084FB032000F0F2F903212000FFF73CFECB
:10143000EBE7C0466C0B002068190020350E001049
:1014400010B5064B5B68002B01D0044810BD044B5F
:10145000044A05485E2100F07BFEC0466C0B00206C
:10146000F47F0010A8800010607E0010F0B5DE460A
:1014700057464E464546E0B58DB0060090461F00E3
:10148000169B9A46179B994618AB1B780793272300
:1014900002AA9446634400221A7021E00100300041
:1014A000FFF7EAFD00783CE00698002B5CD0079B34
:1014B000002B59D04946D04704000D0003000B43D0
:1014C00059D0002940DB08A8FFF726FE089A099B9F
:1014D0000094019508A8FFF7D7FC089B9846099F40
:1014E0007268EFF3108B72B6136859424B41D9B250
:1014F0000691002BF8D1BFF35F8F273302AA9446E1
:10150000634404930023039302934B460193534691
:10151000009342463B003000FFF722FE0400051E08
:10152000BCD17368BFF35F8F002119608BF3108803
:10153000002D17D0272302AA944663441B78002B62
:10154000B2D100022043B0E700236242AB410092D7
:10155000019342463B0008A8FFF796FC089B98467B
:10156000099FBDE7012040420DB0F0BCBB46B2462A
:10157000A946A046F0BD0698F6E7F0B5C64600B508
:1015800084B00500884616001F000AAB1C78FFF7E0
:1015900057FF0294019700962A004346FFF766FF23
:1015A00004B080BCB846F0BDF0B5C64600B5040036
:1015B0000D004268EFF3108772B61368002BFCD061
:1015C000BFF35F8FEEB22368984631001800FFF733
:1015D0008DFC00282AD02369AB4213D02D0AEDB22E
:1015E00031002000FFF748FD0378AB4211D0002006
:1015F0006368BFF35F8F00221A6087F3108880BC96
:10160000B846F0BD0C4B0D4A95210D48490000F03D
:101610009FFD3100404600F027FB0028E8D1094B30
:10162000064A32210648FF3100F092FD2369AB42A1
:10163000DED100232361DBE71880001090800010CA
:10164000607E00103C80001010B50400FFF7F8FE2B
:101650002100FFF7A9FF10BD407D704730B587B06E
:1016600004000D00EFF30583002B20D10622524227
:10167000D31712196B418B4202D803D1824201D990
:101680000022002304A8FFF7EDFB02A8FFF744FDAA
:1016900002980399049A059B121A8B41002B0BDCCC
:1016A00008D02000290000F0C9F807B030BD144868
:1016B00000F0E6FD002AF4D0124A049805990023B0
:1016C0000093FFF75AFF002813DAEAE70E4B1A6877
:1016D000EFF3108172B61368002BFCD0BFF35F8F5D
:1016E000094B1B68BFF35F8F00221A6081F31088DB
:1016F00020BF04980599FFF76DFB0028E6D0D0E7DE
:1017000040800010E91000106819002000B583B077
:1017100002000B006846FFF710FD00980199FFF7E3
:101720009DFF03B000BD10B5FA22920000230021F6
:1017300003F0BAFAFFF7EAFF10BD000030B583B03E
:1017400005000C00EFF30583002B0FD10B4A00239B
:101750000093FFF712FF00280BDD20BFFFF774FF97
:1017600028002100FFF736FB03B030BDFFF732FB46
:10177000FAE728002100FFF72DFBF5E7E91000103C
:1017800070B5EFF305801038EFF3108C72B6194B7B
:101790001B68002BFBD0BFF35F8F01221300834037
:1017A00015494B6315490B60154909780C00C44075
:1017B000224213D0104A546A124A8500AA58944211
:1017C00005D3114AAA580E4C9943217007E00A4AE2
:1017D000031D9B0099589950002200E00022BFF39E
:1017E0005F8F044B002119608CF31088002A00D011
:1017F000904770BD280100D0004005403C70054076
:101800009E190020741900206C11002010B50100F1
:10181000024A034B1800FEF795FE10BD6C810010C4
:1018200098190020044B5B6A034A906A1900536AB6
:101830009942F9D17047C04600400540084B5B6AA9
:1018400001E0074B5B6A8B42FBD301E0044B5B6A10
:101850008B4203D1024B9B6A8342F7D37047C04649
:101860000040054070B504000E00EFF3108572B61D
:101870001B4B1B68002BFBD0BFF35F8F002E1CD0CF
:101880002000FEF76DFF174B83420BD0190020009C
:10189000FEF780FF01212000FEF752FF0123A34045
:1018A000114A1360114BA400E650BFF35F8F0C4B3D
:1018B00000221A6085F3108870BD0C4BA200002135
:1018C000D1500122A2400A490B7893430B7005497D
:1018D0002000FFF791F800212000FEF731FFE4E738
:1018E000280100D081170010386005406C110020DD
:1018F0009E190020F0B5DE4600B584B00400150046
:1019000001921E000293FFF78DFF03958E4202D8CD
:101910004ED185424CD9EFF3108B72B6274B1B6822
:10192000002BFBD0BFF35F8F254A17780125A54018
:10193000EBB23B431370234B5D63221D9200019970
:10194000D150214AA100029888501B6A2B4212D123
:101950001C4B1B6C2B4208D00020BFF35F8F174B32
:1019600000221A608BF3108823E0184B184A19489C
:10197000C52100F0EDFBFFF755FF8E4214D802D1D0
:10198000039B834210D80E4B1B78BB420ED00D4BED
:101990001D625D631F222240012393400E4A1360A3
:1019A000074B1F700120D8E70020D6E70120D4E7BD
:1019B000012004B080BCBB46F0BDC046280100D069
:1019C0009E190020004005407419002090810010ED
:1019D000F8810010B481001080E200E0EFF3108C79
:1019E00072B60B4B1B68002BFBD0BFF35F8F01233C
:1019F0008340084A136208490A789A430A70BFF381
:101A00005F8F034B00221A608CF310887047C0462A
:101A1000280100D0004005409E19002010B5002983
:101A200008D0037B8B4205D300684B005B18033B57
:101A3000C01810BD024B034A0348682100F088FB20
:101A4000987E001000830010B47E0010F8B50600E8
:101A50000C001500FFF7E2FF0700002C0DD0002D51
:101A600011D0AC4215D029003000FFF7D7FF8470A9
:101A70003B78002B13D13D70F8BD0A4B0A4A0B4846
:101A80006F2100F065FB0A4B074A0848702100F0FF
:101A90005FFB084B044A0548712100F059FB437075
:101AA0003D70E9E7007F0010EC820010B47E00106A
:101AB0000C7F0010187F001070B506000D00140098
:101AC000002914D0002A14D0436880689847002861
:101AD00006D0220029003000FFF7B8FF280007E0F9
:101AE0002A0021003000FFF7B1FF200000E01000C5
:101AF00070BD0800FCE770B5050000234373013397
:101B00008373037BC373012406E021002800FFF7E1
:101B100085FF0134E4B24470297BA142F5D8280046
:101B2000FFF77CFF0023437070BD10B50173426066
:101B30008360FFF7E0FF10BDF0B5C64600B50500B5
:101B40000C1E03D1200080BCB846F0BDFFF766FF35
:101B50004678002EF6D031002800FFF75FFF477867
:101B600000239846437021002800FFF757FF4346A3
:101B70004370320021002800FFF79EFF0400390067
:101B80002800FFF7D9FF020021002800FFF794FF8B
:101B90000400D7E7F0B5C64600B504000D001700F5
:101BA000002927D0FFF73AFF4378002B28D183780C
:101BB000002B2BD101782000FFF7BEFF06008046E6
:101BC000002F0AD0E17B002926D1A37B002B03D173
:101BD000E37B002B25D1A573E5734346002B26D16B
:101BE00029002000FFF71AFF00234370300080BC5B
:101BF000B846F0BD114B124A1248382100F0A8FA3D
:101C0000114B0F4A0F483A2100F0A2FA0F4B0C4A31
:101C10000C483B2100F09CFA2000FFF7FFFE4570C6
:101C2000D3E70B4B064A0748422100F091FA3100F6
:101C30002000FFF7F3FE00238370D1E71482001029
:101C4000D88200101C820010548200107C82001088
:101C5000587F001070B504000A00457B2900FFF78B
:101C600099FF6073280070BD70B506000C1E40D04F
:101C7000437B8B4207D0FFF7D1FE05008178002916
:101C800006D1002036E00121FFF7E4FF012031E01A
:101C90003000FFF7C3FE0178A1420DD03000FFF7FE
:101CA000BDFE4178A1420AD00029F7D1124B134A58
:101CB00013486B3100F04CFA6B78037001E06B78DD
:101CC00043700023AB706B70012221003000FFF7DE
:101CD00061FF0200717B814205D03000FFF7ECFE0E
:101CE0007073012006E0074B044A0548712100F09B
:101CF0002FFA002070BDC046547C0010C082001036
:101D00001C820010A0820010F8B5DE4657464E46F1
:101D10004546E0B506000F0015000A9A93424ED3DF
:101D20001A0E92461B0298460A9A002340465146D4
:101D300001F02EFC81467400A419A4002E4B9C4691
:101D400064446368834200D26060331FDBB29B4609
:101D5000012B3AD9C0239B012343802212011A6030
:101D6000264BB200D158002905D0586901F0D2FBAA
:101D700001300138FDD16D0123685D40E0222A4029
:101D800080235B0123431A605A46012A28D9802305
:101D90009B012343802212011A604B4663604A462E
:101DA00000234046514601F0F3FB144BB600985116
:101DB0000120F0BCBB46B246A946A046F8BD104B78
:101DC000104A11482D2100F0C3F9012FC2D1C023C0
:101DD0009B01234303221A60A368DB07FCD5CAE7F3
:101DE0002168794003220A401A60A3680125BD409A
:101DF0001D42FAD0CBE7C046008000408812002088
:101E00000C830010648300102083001030B583B071
:101E10000C2000F011F9FEF775FB00280DD000230F
:101E200004E02E4A99002E4888500133092BF8D936
:101E30002A4B2C4A5A6203B030BD2B4B00229A67C2
:101E400000F06CF9294B01221A60274B5B6C012BC7
:101E5000FBD1274B03221A60234B9B6B012BFBD139
:101E6000013300930433234A0121234800F04EF844
:101E700005230093214A0121214800F047F8214B16
:101E80000093002202210420FFF73EFF1E4D009523
:101E90002B00002201210520FFF736FF104C009493
:101EA0002300002200210720FFF72EFF00942300CB
:101EB000002200210820FFF727FF0A4B0093230090
:101EC000002200210920FFF71FFF00952B000022B0
:101ED00000210620FFF718FFADE7C046881200205A
:101EE000006CDC021BB70000008000403CB00040EA
:101EF00030B00040002F685900800240008C8647B7
:101F000000C00240001BB70040597307F0B5C64639
:101F100000B504000D00170098460C2001F0FAFAF5
:101F20000600394BFA18394B9A4241D843011B1A23
:101F30009901C91AC90009188901380001F0EAFAA3
:101F40000200103A98235B009A4237D84346013B7F
:101F5000062B39D8069B013B062B35D83F09B742E3
:101F600038D343461E04069B1B031E432368002BE5
:101F700036DB274B9C4244D080235B01254A13600B
:101F8000254A1360254A926819009143FAD12560C9
:101F9000A060221DC0239B01134321221A602268E6
:101FA000002AFCDAE66008221A6080BCB846F0BD60
:101FB0001B4B1C4A1C48112100F0CAF81B4B194A44
:101FC0001948192100F0C4F8194B164A16481C216B
:101FD00000F0BEF8174B134A1348232100F0B8F85D
:101FE00022683F231340AB42C3D1A3681B051B0DDE
:101FF0008342BED1E368EE22D2021340B342B8D18D
:10200000D3E780239B01B9E780E84BD380F8A9325E
:1020100000C0024000E0004000F0004000C000406E
:102020007483001098840010D4830010148400106E
:10203000308400107C84001080239B000343014AFD
:10204000D362704700800540024B1A68024B5A6009
:102050007047C046241700200080054010B5174B7C
:102060008022D2051A60164B164A1A6000290AD03F
:10207000154BE022D2041A60002809D1124B8022AD
:1020800012061A6010BD0D4BE022D2041A60F3E76D
:1020900043011B1A9B00181800010C4B1860802389
:1020A0005B04984202D3094B094A1A60FFF7CCFF40
:1020B000054B8022D2051A60E4E7C04600B0054017
:1020C00008200140FCFF010000A00540241700206B
:1020D000FFFFFF0010B5030010000C4A8024E40548
:1020E0001460002B0DD001221343094A094CD4611E
:1020F000094C5C401462516293620021FFF7AEFF0D
:1021000010BD034B0022DA61F7E7C04600B005407E
:1021100000800540D3C007B02D3FF84F064BAA22E0
:1021200012011A602F22DA60044B054A1A60024B32
:102130005B68002BFBDA7047004002400060024001
:1021400000B0FA0000BEFDE710B5FFF7FBFF00008E
:1021500030B583B00D001900002A0BD0074B084C96
:10216000019200932B000200200003F065F801208B
:10217000FFF7E8FF034B1A00F1E7C046A484001004
:10218000B4840010307A001070B52B4B2B4A1A60C3
:102190002B4B2C4A1A602C4B9A682A4B9343FAD14A
:1021A0002A4C01E008CC9847294B9C42FAD3FFF710
:1021B0002DFE234B274A1A60234B9B68DB43DB0130
:1021C000FAD1254B40229A675A671A67DA66234C80
:1021D00009E0234B234A24488621FFF7B9FF20005A
:1021E000FEF7C7FD0834214B9C4209D22368002B1F
:1021F000F5D0012BEDD12000FEF7C8FD0834F2E741
:102200001B4DA9681B4CC022200002F085FEAC606B
:10221000EFF30583002B00D000BEFEF7D5F9FEF7E3
:1022200027FDFFF7EDF8144C01E008CC9847134B5D
:102230009C42FAD370BDC04600E00040BFCDFBFE1B
:1022400000F00040FE7F3C0000C00040080C002071
:10225000180C0020FFFFFF0100F00140000C0020DF
:10226000E48400105C85001004850010080C002038
:1022700000ED00E000000020180C0020200C0020E1
:102280000FB400B583B0084802F0A6FF049B002BF2
:1022900007D005A90191180002F0AEFF034802F033
:1022A0009BFF0120FFF74EFF488500105885001066
:1022B000704710B5002802D00B684968984710BDD8
:1022C0000100002007E083001B185B00501C086021
:1022D0001078C01830380A681378303BDBB2092B0D
:1022E000F1D97047F0B5DE4657464E464546E0B553
:1022F00083B093461F000C9B9A460D9C0E9B9946FB
:102300000F9B9B0703D0B8460F00060022E0019206
:10231000A34688464E46B9460700B44207D2551C2C
:102320004B4641462020B84701342A00F5E73D00DE
:102330004F465C46019B9B46B1464646B846370031
:102340002E0007E0013C551C5346185D43463900FA
:10235000B0472A00002CF5D135003E0047460F9BC0
:102360009B0707D4100003B0F0BCBB46B246A94699
:10237000A046F0BDB0464E46B9462F005D46531B01
:10238000B342EFD2541C4B4641462020B8472200AE
:10239000F5E7F0B5CE46474680B585B094469846F9
:1023A0000C9D0D9C0EAB1B789946109A119B129EAA
:1023B000B7071CD4002B0CD0F7070AD54F46002FC7
:1023C00002D10C37374204D0013B02E030272F55B1
:1023D0000134944201D21F2CF8D9F70707D59C424B
:1023E00005D21F2C03D830272F550134F5E7F70607
:1023F00012D5770505D4002C03D0944221D09C42FD
:102400001FD00F9A102A32D00F9A022A37D01F2CD1
:102410000AD830222A5501341F2C05D84A46002AF2
:1024200033D02D222A55013403960293019400954E
:1024300043466246FFF756FF05B0C0BCB946B046FA
:10244000F0BD621E012C10D00F9F102F0BD0140076
:102450000F9A102AD8D1B206D6D51F2CD4D858221C
:102460002A550134D3E7023CCBE71400C9E7B20692
:10247000EED41F2CECD878222A550134C7E71F2C44
:10248000D2D860322A550134C1E7720703D52B2216
:102490002A550134C8E73207C6D520222A5501340F
:1024A000C2E7F0B5DE4657464E464546E0B593B026
:1024B00081468A46089209931CAB10CB1B789B4639
:1024C0001E9D219B9846002C03D1102342469A431F
:1024D00090468023DB0046461E4042461A4212D0F8
:1024E000002C22D000260EE03033D9B2771C0AAB84
:1024F00099552900200001F00DF8AC4216D31F2F8A
:1025000014D83E0004002900200001F003F8CBB2EB
:10251000092BE9D94246920605D54121C918C9B20D
:102520000A39C9B2E2E76121F8E72700434606937A
:10253000209B05931F9B049303955B460293019791
:102540000AAB0093099B089A51464846FFF721FFC2
:1025500013B0F0BCBB46B246A946A046F0BDF0B5EC
:10256000DE4657464E464546E0B597B00A900B9179
:102570000C929A46209B9946219F22AA13789B464B
:10258000249B0993259C289B98464A463A4302D1AE
:102590001032934398468022D20045461540434668
:1025A00013420AD04A463A4341D000252E005346F2
:1025B0000D934D46099B9A461BE02E0053460D9302
:1025C0004D46099B9A4614E03033DAB2731C9946A3
:1025D0000EAB9A55524623002800390000F0D8FF70
:1025E000BC4226D819D04B461F2B1CD84E4605009E
:1025F0000F00524623002800390000F0C9FFD3B273
:10260000092BE1D94246920605D54122D218D2B211
:102610000A3AD2B2DAE76122F8E7AA45E3D94E4690
:102620000D9B9A4608E04E460D9B9A4604E0002614
:1026300002E04E460D9B9A4643460693279B059320
:10264000269B0493099B03935B46029301960EAB72
:10265000009353460C9A0B990A98FFF79AFE17B00D
:10266000F0BCBB46B246A946A046F0BDF0B5DE467A
:1026700057464E464546E0B591B0804689460C9295
:102680009A461A9C1B9D22002B002000290001F075
:1026900012FA002800D0ECE001225242D44B200074
:1026A000290001F003FA002800D0E2E001225242A2
:1026B000D04B2000290001F0E3F9002800D0D8E039
:1026C000002200232000290001F0DAF9002800D0C0
:1026D000E4E0069407958023DB001E9A1A400D92D1
:1026E0001E9A1A4201D106231C93069807990200EC
:1026F0000B000892099303000A00024300D1D9E0BD
:10270000080D4005400DBC4EB44660440A03120B50
:102710001E00BA4B13431F0001F0E0F9B84AB94B51
:1027200001F063F9B84AB94B01F038F90890099102
:102730000022B74B3000390001F027F9B54AB64BFB
:1027400001F053F902000B000898099901F026F9ED
:1027500001F0DCF9834601F0C1F906000F00AF4A31
:10276000AF4B01F042F90022AE4B01F017F901F036
:10277000CDF90890AC4AAD4B3000390001F035F985
:1027800006000F00089801F0A9F9A94AA94B01F029
:102790002CF902000B003000390001F0F6F80600B9
:1027A0000F0002000B0001F020F90A900B91089B2A
:1027B000A14A9446634400210022089109921B0516
:1027C00009930023089332003B003000390001F0E8
:1027D000E5F80E900F9132003B0000208021C905E2
:1027E00001F0D3F806000F000022944B0A980B99D1
:1027F00001F0DDF80022924B01F0D0F802000B004E
:102800000A980B9901F0D3F800228E4B01F0C6F81C
:1028100002000B000A980B9901F0C9F802000B00A6
:102820003000390001F0BAF802000B000E980F9941
:1028300001F0BDF80022714B01F0B0F8089A099B35
:1028400001F0D3F806000F0008960997069A079B37
:1028500001F02CF900282FD001235B429C46E34471
:102860000022774B3000390001F0A1F8089009915F
:1028700022E01E9B04931D9B03931C9B02930094D8
:10288000019553460C9A4946404600F0FFF811B0B6
:10289000F0BCBB46B246A946A046F0BD00210022CE
:1028A00006910792069480231B069C46AC4463461F
:1028B000079310E700239B465B466333C62B20D863
:1028C00004261E9B1B0528D5089A099B1900114355
:1028D0000FD05D4A5D4B0698079901F0DFF800289C
:1028E0007AD000225A4B0698079901F0C9F80028BF
:1028F00072D01C9B5B4506DD5A469B1A013B1C931C
:1029000003E00526DDE700231C938023DB001E9AED
:102910001A431E92002600239B461D9B9E4265D2B1
:102920009F1B02231E9A1A400A921E9A134202D03B
:10293000002E00D000275B46002B07D0089A099B89
:102940000698079901F033F80690079100220023BA
:102950002000290001F094F8002800D07CE03D4BD5
:102960001E9A1340049303971C9B0293069B079C9B
:102970000093019453460C9A4946404600F086F86D
:10298000002E00D183E71E9B9B0671D54525441C74
:102990005346020049462800C0475A46D317D2186A
:1029A0005A4005230593013E0496002303930A33FE
:1029B00002935B46DB0F0193009253462200494687
:1029C0004046FFF76EFD0A9B002B00D15FE7020037
:1029D00047460C9E1D9D53E01C9B002B9DD00D9BDC
:1029E000002B9AD01C9B013B1C9396E7002798E78D
:1029F000FFFFEF7FFFFFEFFF01FCFFFF0000F03F55
:102A0000FB799F501344D33FB3C8608B288AC63FDD
:102A10000000F83F61436F63A787D23F71A3790934
:102A20004F930A400000E03F1655B5BBB16B024022
:102A3000EF39FAFE422EE63FFF03000000002C4073
:102A400000002440000018402D431CEBE2361A3FE2
:102A500080842E41FFF7FFFF069C079D220029007E
:102A600080200006844661440B000692079376E7B7
:102A700065258CE7541C534649462020B847220060
:102A8000931BAB42F6D3100001E7C046F0B5DE461B
:102A900057464E464546E0B595B006900791934699
:102AA0009946209F1E9A1F9B1000190001F003F801
:102AB000002831D101225242BF4B1E981F9900F0CD
:102AC000DFFF002837D101225242BC4B1E981F99CC
:102AD00000F0ECFF00283DD10022B94B1E981F9951
:102AE00000F0E4FF002850D10022B64B1E981F9939
:102AF00000F0C6FF002848D1002200231E981F992D
:102B000000F0BEFF002850D100239846229B5B05B1
:102B100000D4B6E0002458E0229B0393219B02934B
:102B200003230193A84B00934B465A4607990698F6
:102B3000FFF7D8FB0EE1229B0393219B0293042312
:102B40000193A24B00934B465A4607990698FFF70C
:102B5000C9FBFFE00423229A1A4022990B4210D0AD
:102B60009B4B002A0FD004222299039121990291B4
:102B7000019200934B465A4607990698FFF7B2FB1D
:102B8000E8E0944BEDE70322EEE7229B0493219BC0
:102B9000039302971E9B1F9C009301944B465A4639
:102BA00007990698FFF762FDD4E01E9A1F9B00204C
:102BB000002100F0EAFE1E901F9101239846A5E730
:102BC0000CAB30221A55013F01341F2C01D8092FBC
:102BD000F6D81E981F9900F099FF050000F07EFFBF
:102BE00002000B001E981F9900F0CFFE7A4BFA00EE
:102BF0009B181A685B680A920B9300F0F6FE089027
:102C0000099100F0A7FF060000F064FF02000B002E
:102C10000898099900F0B9FE0890099100226F4BBD
:102C200000F044FF00282ED00136300000F052FFA3
:102C300002000B000A980B9900F028FF002801D031
:102C400001350026002F2CD1280000F047FF02009C
:102C50000B001E981F9900F098FE06000F0000223E
:102C60005E4B00F00DFF002846D100225B4B300088
:102C7000390000F01BFF00283ED1EB073CD50135A1
:102C80003AE0062746E70022544B0898099900F0DD
:102C9000F7FE0028D6D1002E01D0F307D2D5013699
:102CA000D0E7AA461F2C11D8013F0A21300000F0BE
:102CB00031FC651C30310CAB19550A21300000F095
:102CC00029FC092E0ED906002C00EBE755461F2CD7
:102CD0000CD87B1E002F09D00CAA302111551F00E3
:102CE0000134F4E72B0055461C00F0E71F2C03D8F5
:102CF0000CAB2E221A5501341F2C10D80A212800A3
:102D000000F0E0FB661C30310CAB19550A2128009D
:102D100000F0D8FB051E01D03400EDE7340003239A
:102D2000229A1340012B1CD01F2C06D84346002B9F
:102D300032D00CAB2D221A550134229B0393219BD8
:102D4000029301940CAB00934B465A4607990698A0
:102D5000FFF7C8FA15B0F0BCBB46B246A946A0467C
:102D6000F0BD219B002B13D04346002B02D10C3326
:102D700013420FD0219B013B2193190003E00CABC0
:102D800030221A5501348C42CED21F2CF7D9CBE712
:102D90002199F8E72199F6E7229B5B0704D50CAB54
:102DA0002B221A550134C8E7229B1B07C5D50CAB53
:102DB00020221A550134C0E7FFFFEFFFFFFFEF7F2E
:102DC00065CDCD4165CDCDC1788500107C850010E5
:102DD0006C85001074850010208700100000E03F13
:102DE000F0B5DE4657464E464546E0B593B08246BE
:102DF000884693461193002900D106E300255646E4
:102E0000119B1878002800D102E3252809D06C1CFA
:102E10005B462A004146B047119B013311932500C0
:102E2000EEE701331193002720E001231F43013215
:102E30001192012418E002231F4301321192012450
:102E400012E004231F430132119201240CE00823F5
:102E50001F4301321192012406E010231F43013267
:102E60001192012400E00024002C09D0119A13785B
:102E7000203BD9B21029F6D88B00C449CB589F46C5
:102E8000119B1A781300303BDBB2092B10D92A2A88
:102E900013D00B94119B1A782E2A1ED0119A1378F6
:102EA000683BD9B2122959D88B00B949CB589F46F3
:102EB00011A8FFF705FA0B90ECE71C9B1A1D1C925A
:102EC0001B68002B04DB0B93119B01331193E1E78B
:102ED000022217435B420B93F6E78022D20017438E
:102EE0005A1C11925A781300303BDBB2092B0BD9D4
:102EF0002A2AD3D11C9B1A1D1C921C68002C08DBAB
:102F0000119B01331193C9E711A8FFF7D9F9040008
:102F1000C4E70024F4E780235B003B43511C11917C
:102F200051786C2901D01F0018E0C0239B001F437B
:102F30000232119212E080233B43511C11915178CF
:102F4000682901D01F0009E0C0231F4302321192FB
:102F500004E080235B001F4301321192119B18781B
:102F6000672816D8252826D30300253BDAB2422A43
:102F700021D89300874AD3589F4680239B001F4344
:102F800001321192EAE780235B001F430132119264
:102F9000E4E778280FD869280DD30200693AD2B245
:102FA000012393407C4A13420FD11A0600D507E251
:102FB0005B0500D594E16C1C5B462A004146B04796
:102FC000119B0133119325001AE778280AD0622853
:102FD0003AD06F283BD058283CD010239F43063B63
:102FE0009C4601E010239C46582836D0692803D01F
:102FF000642801D00C2297437A0501D5012297431A
:1030000069282DD064282BD0BA0500D5A2E0FA0596
:1030100000D5C3E07A0600D4D5E01C9A111D1C919E
:103020001168FF220A4005970B9B049303946346A3
:1030300002930023019300925B462A004146300030
:10304000FFF72FFA05002AE002239C46CCE708236D
:103050009C46C9E710239C46C6E720221743C5E7D4
:10306000BA0520D4FA0550D47A0666D51C9A111DEB
:103070001C911168FF220A40D01711184140059792
:103080000B9B0493039463460293D20F0192009129
:103090005B462A0041463000FFF703FA0500119B0A
:1030A00001331193ACE61C9A073207218A431100C1
:1030B00008311C91116853689946DB170C930D93E6
:1030C0000C9A0D9B100048400E904A4653400F93B7
:1030D0000E980F990C9A0D9B801A99410E900F91A2
:1030E00008970B9B0793069463460493002305936C
:1030F0004B46DA0F0292009001915B462A0041464E
:103100003000FFF72CFA0500C9E71C9A111D1C912D
:103110001268D0171118414005970B9B0493039434
:1031200063460293D20F019200915B462A0041460A
:103130003000FFF7B6F90500B1E73A0605D51C9A4D
:10314000111D1C910023D25E96E71C9A111D1C9143
:10315000126891E71C9A073207218A43110008314F
:103160001C9108970B9B07930694634604930023D6
:103170000593029353681268009201935B462A00FC
:1031800041463000FFF7EBF9050088E78485001021
:10319000C885001014860010419000001C9A111D73
:1031A0001C9105970B9B04930394634602930023A1
:1031B0000193136800935B462A0041463000FFF7F5
:1031C00070F905006BE73A0606D51C9A111D1C9193
:1031D00012681204120C26E71C9A111D1C91126829
:1031E00021E7462819D01C9B0733072293431A0076
:1031F00008321C9204970B9A039202941A685B6837
:10320000009201935B462A0041463000FFF73EFCE6
:103210000500119B01331193F2E520231F43E2E7E0
:10322000672801D0472802D180231B011F4345286E
:1032300001D0472801D120231F431C9B07330722BD
:1032400093431A0008321C9204970B9A039202943B
:103250001A685B68009201935B462A004146300081
:10326000FFF704FA0500119B01331193C8E502230F
:103270001A003A4091463B421DD001241C9B1A1D66
:103280001C926F1C18785B462A004146B0474B469B
:10329000002B14D1119B013311933D00B0E5571C55
:1032A0005B4641462020B04723003A005C1C9D420B
:1032B000F5D81500E2E701232A000B9DF6E73A0056
:1032C000B1460B9E06E0571C5B4641462020C8478E
:1032D0002C003A00651CA642F5D817004E46D9E7E7
:1032E0001C9B1A1D1C921B689A46002C25D101229A
:1032F0005242534601E001330A001978002902D0F6
:10330000511E002AF7D152469B1A8022D200390062
:1033100011408946174202D0A34200D9230002225D
:103320001100394010913A4209D02A002500574631
:103330009A4633004E46994621E02200D9E72A00FA
:103340004546A04606E0541C5B4629002020B047B5
:103350003B0022005F1C0B999942F4D84446A846D2
:103360003B00250057469A4633004E46994606E0F4
:103370001D000137541C5B464146C847220038787F
:10338000002804D0002EF4D06B1E002DF0D11500C3
:1033900053464E46109A002A03D1119B01331193D4
:1033A0002EE50B9F2A0006E0551C5B464146202077
:1033B000B04723002A005C1C9F42F5D81500ECE7BB
:1033C00021233B431C9A111D1C911268059308236D
:1033D00004930394083302930023019300925B4605
:1033E0002A0041463000FFF75CF80500119B0133CD
:1033F000119305E56C1C5B462A0041462520B04729
:10340000119B013311932500FAE40B4B9A46F5E426
:10341000B2465D450DD35B465A1E5B4641460020D1
:10342000D047280013B0F0BCBB46B246A946A04620
:10343000F0BD2A00F1E7C046B122001000B585B00A
:103440000290039101210448009313004A4202A90B
:10345000FFF7C6FC05B000BDB322001001480421EF
:10346000014B1847A00B00208D34001010B501004F
:1034700018231B8814221088984710BD10B501002E
:1034800018231B8816221088984710BDF0B5C64631
:1034900000B507000E0000250123984600E0013525
:1034A000B5420AD2AC003C192068FFF7DFFF20606C
:1034B0000028F4D100239846F1E7404680BCB84686
:1034C000F0BD0000124A936F9B0815D29066D1663A
:1034D000002905D0FFE7FFE7FFE7516F106F704746
:1034E00004B580210906C2175140002800D0C84306
:1034F00004F026FA002104BDF0B5146E556E576F26
:10350000166FFFF7E3FF1466556657671667F0BD41
:10351000000000D0114A936F9B0813D210665166C9
:10352000002905D0FFE7FFE7FFE7516F106F7047F5
:1035300004B5002801D00020C04304F001FA0021A6
:1035400004BDC046F0B5146E556E576F166FFFF789
:10355000E5FF1466556657671667F0BD000000D09A
:1035600094464A4A926F9208624601D228E0C046C9
:10357000F0B5464E346E756E776F366F00F020F8FA
:103580009446424A14665566576716676246F0BD10
:1035900094463E4A926F9208624601D254E0C04679
:1035A000F0B53A4E346E756E776F366F00F04CF8AA
:1035B0009446364A14665566576716676246F0BDEC
:1035C000002B24DB11D000293EDA00B5C94340426C
:1035D00000D1013100F038F8C943404200D1013137
:1035E000DB43524200D1013300BD002AEBD1002859
:1035F00001D1002905D00020C90FC90701D1C0435E
:10360000410800B504F094F90022002300BD00B584
:1036100000290ADBDB43524200D1013300F014F8E9
:10362000C943404200D1013100BDC943404200D1ED
:103630000131DB43524200D1013300F005F8DB4396
:10364000524200D1013300BD002923D1002B18D1F3
:10365000002A0CD0BC460D4F38667A660021002344
:10366000FFE7FFE7FFE77A6F386F6746704700288C
:1036700001D00748010000B504F05AF900220023E8
:1036800000BD02000B00002000217047000000D0A8
:10369000FFFFFFFF002B00D0BFE0130C28D1002A52
:1036A000E7D080B4114F39667A66FFE7FFE730B4A0
:1036B000040C7B6F396F1B0423433B667A66FFE77C
:1036C000FFE7FFE7C04684B27B6F3D6F1B042343D7
:1036D0003B667A66FFE7FFE7C04600232C042D0C0B
:1036E0007A6F386F00196941B0BC7047000000D094
:1036F000F0B594460025140E01D112020835140FBE
:1037000001D112010435940F01D192000235D40F7A
:1037100001D152000135D40B0134254F7C66254C74
:103720003C660E0C93B2FFE7FFE7FFE73C6F664392
:10373000360C7703BE467343DF0B5B04C01AB941F6
:10374000130C7343DB18C91ACE086643360CB64413
:1037500093B273431F0F1B01C01AB941130C73437B
:103760001F0B1B05C01AB941860D8F023E436643ED
:10377000360C092D24DB520A7243801A7703460A5D
:103780006643360C16235B1BDE40DF40BF196446E0
:103790006643821B7046043506330100D940A840B9
:1037A000C01900D30131A24206D20023F0BD0000AF
:1037B000000000D0FFFFFFFF121B0130F3D3F1E741
:1037C00009277F1BFE406446A2B27243801A00D2D2
:1037D0000139220C7243130C1204821A99410B0016
:1037E0007046043513370100F940A840801900D312
:1037F0000131002B02D1A2420AD2F0BD013000D328
:103800000131121BFAD2013BF8D1A24200D2F0BD25
:10381000013000D30131121BF7E7F0B51C0C00D0CA
:1038200080E00CB400251C0A04D11B02160E3343A1
:10383000120208351C0B04D11B01160F3343120171
:1038400004359C0B04D19B00960F33439200023544
:10385000DC0B02D192185B4101351C0097186441C2
:103860000134464F7C66464C3C660E0CFFE7FFE792
:10387000FFE7C0463C6F6643360C7703BE4697B2FF
:103880007743C01B00D20139C01B00D201399FB25F
:103890007743C91BC91B170C77437E04FF0B801BA2
:1038A000B941CE086643360C0C2D33DBB644120BFF
:1038B0001F053A431B0B97B27743C01B00D2013957
:1038C0009FB27743C91B170C77433E043F0C801B04
:1038D000B941860D8F023E43664329277F1BFE4078
:1038E0000C3D7746AF40BF1930BCA2B2ABB27243B9
:1038F0007343801A9941220C7243130C1204801AEC
:10390000994102000B000137001BA941F9D2781E32
:103910000021F0BD0C277F1BFE4077467F0BAF4098
:10392000FF19E0E700245D1C07D0144F7D6639665F
:10393000FFE7FFE7FFE7FFE73C6F95B29EB2654305
:103940006643401BB141150C1E0C654366433604AB
:103950002F0C3E432D04401BB141994204D202007A
:103960000B0020000021F0BD01D19042F7D3801A56
:10397000994101349942F2D3F6E70000000000D0EB
:10398000FFFFFFFF48404140484018B41B4B5B68B5
:10399000FC46019308BD04DFA343001018B4174B85
:1039A0001B68FC46019308BD00DFAD430010944640
:1039B000134A926F920809D2624618B40F4BDB6823
:1039C000FC46019308BD0CDF654600100C4AF0B5BB
:1039D000146E556E576F166F6246FFF7EEFF084A7A
:1039E0001466556657671667F0BD18B4034B9B689D
:1039F000FC46019308BD08DF09450010641700204C
:103A0000000000D0FFB550404240504059404B406C
:103A1000594000E0FFB5154F4C00640D03D0BC4287
:103A200004D10C0314D80020090D09055C00640DB5
:103A300003D0BC4204D11C030AD800221B0D1B0575
:103A400001264B4009D44B4003D58B4200D1824222
:103A5000FFBD9942FCD19042FFBD0B43DB180343ED
:103A60001343F5D0C9434918FFBD0000FF0700000C
:103A700000B5FFF7CFFF01D0002000BD012000BD41
:103A800000B5FFF7C7FF804100BDC04600B5FFF796
:103A9000C1FF01D9002000BD012000BD00B5FFF726
:103AA000B1FF01D9002000BD012000BD00B5FFF726
:103AB000A9FF804100BD012040054A00121804D82A
:103AC0005A00121801D800207047012070470020CA
:103AD000704700000021002805D17047C1174840F9
:103AE000401AFAD0C90713B5064B1B6898470CBC9F
:103AF000441CA2401005120B0349091B0905194378
:103B0000114310BD641800201F04000010B54C00C4
:103B1000620D8023D218DB00D21A5B057E2A10DDED
:103B20009E3A13DACC170903490819435242D1408F
:103B3000640001341532202A05DAD040084360437E
:103B400010BD002010BD0846604310BDC80FC0184E
:103B5000013810BD18B4044B5B6AFC46019308BDE4
:103B600024DF1548001000006417002018B4044B2F
:103B7000DB6FFC46019308BD7CDF95480010000018
:103B80006417002018B4044BDB6CFC46019308BD9D
:103B90004CDF414A001000006417002018B4044BA9
:103BA0001B6DFC46019308BD50DFDD4A001000008C
:103BB0006417002070B513231C78012C12D0012C3F
:103BC00012DC214B214A93642148FFF74FFC214B23
:103BD000186070BD1C491D4A9800815001331F2B8D
:103BE000F8D9ECE70023FAE71B48FFF747FC05008C
:103BF0001A48FFF743FC023803789B007F2B09DD4E
:103C000012488022290001F087F9022C08D0022CEA
:103C1000DADCD6E7124B134A13483221FEF798FA42
:103C2000124B1A88B5231B029A4209D1104B1A88ED
:103C3000104B9A4204D1104B1A88104B9A42E6D08E
:103C40000020FEF71DFBC0466943001064170020EA
:103C50004C33000064180020534400005346000019
:103C60007087001018880010D087001054380000AA
:103C7000D8380000494600009C3800005946000032
:103C800030B50B0D5B055C0D002B14D00D4B9C4229
:103C900011D01419002C09DD0B4B9C420CDDC90F0F
:103CA000C907002409480843050002E00024C90FA1
:103CB000CD072000290030BD0024150524184D41F2
:103CC000F7E7C046FF070000FE0700000000F07F96
:103CD00030B50B0D5B055A0D002B1FD0134BD218BE
:103CE0001ED434239B1A002B1CDD1C00203C0CD45A
:103CF00001225242A240012464429C400300A3439B
:103D000091430B4310D1012009E02024E41A012241
:103D100052421500E5409A402A43ECE7012030BDAD
:103D20000020FCE70120FAE70020F8E701FCFFFF94
:103D300030B50B0D5B055B0D1B4A9B182CD4342250
:103D4000D31A2BD41C00203C16D4353AA2400124AF
:103D500064429C400500A5432C000D0095432A00B9
:103D600022431DD1342B1DD01A00203A0DD4080057
:103D7000D0400123184030BD2024E41A01225242D1
:103D80001500E5409A402A43E1E72022D21A0C00B0
:103D90009440D8402043ECE70020ECE70020EAE71D
:103DA0000020E8E70120E6E701FCFFFF02000B002E
:103DB000090D4905480D002907D00549884205D05D
:103DC0001803000B10434342584170470020FCE7A2
:103DD000FF07000070B504000D001600012A0ED088
:103DE000D20F92195210FFF7F5FF02000B00FFF7F8
:103DF000FCFDF60703D522002B00FFF7F6FD70BD92
:103E000010B5141E03DB2200FFF7E4FF10BD020013
:103E10000B0000200249FFF7CAFD6442F3E7C046E9
:103E20000000F03FF0B5D6464F464646C0B588B0D4
:103E300014001D000E0D7605760D674BF718674AC6
:103E4000921BFFF71DFFFFF7A9FE654A654BFFF7C1
:103E5000AEFD0022644B00900191FFF727FE002881
:103E600009D00022614B00980199FFF78EFD009068
:103E700001915F4BF718002F11D000225D4B2000FD
:103E80002900FFF70BFE002815D0002F10DB0020C3
:103E9000594908B0E0BCBA46B146A846F0BD220078
:103EA0002B0000980199FFF7A0FD00F065F9F0E7FD
:103EB00000200021EDE70022504B20002900FFF7F1
:103EC000E5FD002807D0002F02DB00200021E0E7FD
:103ED00000204949DDE72000290000F001F90490A5
:103EE000059102000B0020002900FFF74EFD0300A2
:103EF0000C001A220293039400F0EEF800F0F0F8A0
:103F00001A225242FFF7BCFE04000D0002000B0013
:103F100002980399FFF739FD0690079104980599D7
:103F2000FFF7F4FD8146010079438A463800FFF728
:103F3000D5FD22002B0004900591FFF756FD0600E9
:103F40000F0000F0CDF804000D00FFF7DFFD804604
:103F5000D04422002B0030003900FFF716FD04008A
:103F60000D00069A079B04980599FFF73EFD020095
:103F70000B0020002900FFF711FD04900591484631
:103F8000FFF7ACFD009A019BFFF72FFD04000D0029
:103F900000F0A6F806000F00FFF7B8FD80443200DD
:103FA0003B0020002900FFF7F0FC049A059BFFF777
:103FB000F5FC04000D00029A039B00980199FFF79D
:103FC00014FD22002B00FFF7E9FC00F0D5F8424673
:103FD000FFF756FE5DE7C04601FCFFFFFF03000050
:103FE000EF39FAFE422EE63F0000E03F0000F03FCE
:103FF00002FCFFFF0000B0400000F07F0000B0C0F6
:10400000F0B5C64600B582B004000D0016001F00D2
:10401000019000291DDA10001900FFF789FE002821
:104020000ED0200080231B06E91832003B00FFF76A
:10403000E7FF80242406091902B080BCB846F0BD11
:10404000019880231B06E91832003B00FFF7D8FFD8
:10405000F2E710001900FFF759FD80462000290003
:10406000FFF7A4FE00280CD14346002B28D02033B4
:10407000402B1FD932003B0020002900FFF7D2FE61
:10408000DAE72A0D5205520D0F4B9C4662448023FD
:104090001B01984505DA0D4B984504DA0B4B984601
:1040A00001E00B4B984643465A4300200949FFF76D
:1040B000E7FDC1E7424620002900FFF7A1FEBBE76C
:1040C00000200449B8E7C04601FCFFFF00F8FFFFED
:1040D000FF0700000000F03F10B5FFF7D1FD10BD55
:1040E00070B50B0D5B055B0D214A944663445A1C69
:1040F00024DB5A1C28D03422D21A002A1DDD332496
:10410000E41A2500203D26D40126AE4033000125C7
:10411000A5402A0012184B412500203D21D402263B
:10412000AE4031000225A5402800002544428D41C3
:104130001600264030002B40190070BD0022C90F28
:10414000CB0710001900F8E7CB0FDB070020094A66
:104150001A431100F1E720252D1B0126EE40330004
:10416000D5E720252D1B0226EE403100DAE7C046B8
:1041700001FCFFFF0000F03F70B504000D000A0DC8
:10418000194B9A4229D00022184BFFF77FFC0028D8
:1041900026D10022164B20002900FFF77FFC0028C3
:1041A00002D0002013491DE020002900FFF798FFEE
:1041B000FFF7ACFC0600FFF791FC02000B002000AB
:1041C0002900FFF7E2FB0C4A0C4BFFF70EFCFFF750
:1041D000D9FC3200FFF754FD04E00020002101E08B
:1041E0000020002170BDC046FF0F00000000B0C0DD
:1041F0000000B0400000F07FEF39FAFE422EE63FAB
:10420000F8B5CE46474680B506000F0014001D00E5
:1042100000224E4BFFF72CFC002821D12B0D984695
:104220005B055A0D9146002B1AD00022484B3000F6
:104230003900FFF71DFC002802D0464B99456DD090
:104240003A0D5305590D002B1DD1002D0EDB20001A
:104250002900FFF76DFD002863D03000390001E030
:1042600000203A49C0BCB946B046F8BD200029003C
:10427000FFF75EFD002857D0FB0FDB070020364A12
:104280001A431100EEE7334B9A4213D0334B9A4254
:1042900015D0304B984527D0304B98452AD0200078
:1042A0002900FFF715FD00282AD1002F2FDA002062
:1042B0002949D7E7002D3ADA00200021D2E7002D66
:1042C00008DB20002900FFF733FD002832D0002052
:1042D0002349C7E720002900FFF72AFD00282CD03A
:1042E000002080210906BDE71E4B994228DC0020F2
:1042F0000021B7E71B4B994225DC00201649B1E7A6
:1043000022002B0030003900FFF77AFEAAE72200D6
:104310002B0030003900FFF785FDA3E700200B4993
:10432000A0E7002000219DE700200B499AE700202C
:10433000094997E70020084994E70020002191E708
:10434000002005498EE7002000218BE70000F03FA8
:104350000000F0BFFF0700000000F07FFF0F00002B
:104360000000F0FFFE03000007B56046002800D102
:1043700000BE01880A0A0230DF2AFAD1C9B28208D7
:1043800004D3028840880004104300E00068024A19
:104390005050039007BD0000641700200FB403BC09
:1043A0000CBCF0B50124E407634000E0F0B50C0D4F
:1043B000CF0F661E3605891B640503D3C9434042EF
:1043C00000D30131640D03D0661CF60A07D0E41B4C
:1043D00000207F00791C89078912803C24031D0D71
:1043E000DF0F6E1E36059B1B6D0503D3DB43524268
:1043F00000D301336D0D03D06E1CF60A07D0ED1B00
:1044000000227F007B1C9B079B12803D2D032F1BEE
:10441000661B58D4A446202E46DA20371400BC4030
:104420001D00BD40F24033412A4380185941CB0F53
:1044300005D0C943C0430022644250415141624605
:104440004D0D28D10D0D07D100281FD02419404152
:104450004941013A0D0DF9D0640006D3013000D373
:104460000131002C01D140084000013A0BD4941CCA
:10447000E40A04D112051144DB071944F0BDD90741
:10448000204B194300E0D9070020F0BD0029DDD101
:10449000002CDBD1F0BD0132C6074008CD07284310
:1044A0004908002EE1D0D9E73C2E29DA203E4037DA
:1044B0001400BC4000D00124F24014431A00BB4059
:1044C0001C43D317ACE7AC46202F08DA2036040093
:1044D000B4400D00B540F84039412843A5E73C2FD2
:1044E0000CDA203F40360400B44000D00124F840EC
:1044F00004430800B1400C43C117EAE7100019005B
:10450000002494E70000F07FF0B50C0D661E360520
:10451000891BE60A6405640D02D0651CED0A04D00F
:10452000002001210905803C2403A4461C0D671EC0
:104530003F05DB1BE70A6405640D02D0651CED0A2C
:1045400004D0002201231B05803C240377406444EF
:1045500097B484B296B27443070C7E43150C6F4334
:1045600080B26843361802D3012000043F1830049B
:10457000350C00197D41844688B29AB250430C0C28
:1045800062431F0C7C438EB27E43921902D30126F4
:104590003604A4191604170C3618674101BC81B201
:1045A0009AB25143040C62431B0C5C4380B25843E3
:1045B000121802D30120000424181004130C401810
:1045C00063412D185E410020474106BC88B293B27A
:1045D00058430C0C6343120C544389B251435B188B
:1045E00002D301210904641819041A0C0918624144
:1045F0006D1856410020474118BCF902720D114355
:10460000F0026A0D1043ED020A0D03D16D1940410D
:104610004941013B124E9B1B7600B3420ED26D0006
:1046200007D30130002671416646354301D1400869
:1046300040001B05C918E4072144F0BD0BDA013323
:1046400006D1013004D101314F0D01D04908F2E704
:10465000E1070020F0BD013631050020EBE7000046
:10466000FF030000F0B51C0D671E3F05DB1BE70ACA
:104670006405640D02D0661CF60A04D000220123F2
:104680001B05803C2403D0252D060026F6432E660C
:104690001E096E66CE0FF619B44649004F0D02D0C2
:1046A0007E1CF60A03D000200021403F3F033E1B42
:1046B000B600B444013F7F05C91B49082E6F01367F
:1046C00076089C02950D25437543ED137543AD1394
:1046D00001356D10F603761B0CB4CC02450D2C434E
:1046E000A2B2B3B25A43270C7B43350C6F43A4B23A
:1046F0006C431B1902D3012424043F191C041D0C14
:10470000A4187D4124196D41009A91B2ACB2614365
:10471000170C7C432B0C5F4392B25A43A41802D36C
:1047200001221204BF182204230C52187B41019C61
:104730006C431B19520ED9010A434401A01A81B2DD
:10474000B2B2514303145A43360C734387B27743D2
:10475000D617D21900277E4136049B191704160C70
:104760007F185E417316ED18F30100268033754102
:10477000A90F06D16400690AE8055B0A184309D24B
:104780002FE00422944480337541A90AA8059B0AAE
:10479000184326D3404149412404009A019B0D004F
:1047A0005543641B4343E41A95B286B27543170C14
:1047B0007E43030C5F4392B25A43B61802D30122E0
:1047C0001204BF183204330C52197B4152429C41EF
:1047D000002C02D40022013051414008CA07104386
:1047E000490802B06246D7079210084BD218084B0E
:1047F0009A4203D212058918C919F0BD0020002A77
:1048000001DC3900F0BD01331905F5E7FD030000B7
:10481000FE070000002200B5203200F004F8080076
:1048200000BD000000220B150AD410B5944600F01C
:10483000A7F81414013400DA0021CB17144C2047D8
:104840000020002170476244343A0CD40C2A07DA65
:1048500004009140904052422032D440214310BD88
:10486000D843D94310BD203207D40C46944052425D
:1048700020321141D040204310BD0800C91720321A
:1048800003D452422032104110BD1800190010BD4F
:10489000474800104A00520D144BD21A13DDFF2A6C
:1048A0001EDAD205CB0FDB071A43C300400F090302
:1048B000490A084310435B0001D301D0013070471F
:1048C0004308FBD2704702D0C80FC00770470A03E5
:1048D00012130132F8D1420F072AF5D1012200E06C
:1048E000FF22C80F00028018C00570478003000037
:1048F00000210A00002104E000210A00C11704E0A1
:104900000022002306E0C0460022CB175840594041
:10491000C01A994130B5184CA21A002903D10100E0
:1049200010D00020203A4C1512D104D2013A0018C0
:1049300049414C0DFAD3114CA24204D212058918F8
:10494000DB07C91830BDD243520D00200021F5E726
:1049500003D4013A00184941FBD50B324405C00A83
:104960004D052843C90A640003D000246041614119
:10497000E1E7E0D34408F8E732040000FE07000056
:104980000A0DCC0F531E1B05C91A520503D3C94388
:10499000404200D30131520D03D0531CDB0A07D033
:1049A000121B00206400611C89078912803A1203DF
:1049B000014BD21A70470000FF030000023225D4D9
:1049C0000C2A1CDA1125AD1A0B002B4108320735D1
:1049D0000600EE40904091403143F0CC63431A15FD
:1049E00000235A41554356435743BF02F4127605FC
:1049F00076196741ED177F19801BB94170470C226A
:104A00000020C917490001310905DBE70902030E3F
:104A1000194300025342203208D40C00194194403B
:104A2000D840204300225041514170470800C91727
:104A3000203B2032F1D500200021002270470000E9
:104A4000F0B5FFF79DFF54A4FFF7B8FF002904DA83
:104A5000204C214D00196941013A04B4012752A6A6
:104A6000002201239B0730CEB446001BA9410BD482
:104A70007E4220361D003D411C00B4401600FE4021
:104A8000344362416B4101E00019694166460137D8
:104A9000212FE8D185B29EB2754307147E43190CCD
:104AA0004F4384B24C43F117361900246141090485
:104AB0007F183404310C64197941A40F8800204315
:104AC00089178018594104BC52423E32FFF71DFF3E
:104AD000F0BD00006BDE73F4FD855C2CF0B54F007B
:104AE00050D27F154ED001374FD0FFF749FF04B4A5
:104AF0004902C20D1143400201272BA6B4460022F1
:104B000000237E4220360D003D410C00B4400600DB
:104B1000FE40344344414D41AE0F05D120002900F1
:104B2000664630CE121BAB410824A4440137212F26
:104B3000E7D18900891012184B4180BC17A413CC0F
:104B40000137784379437C434F05C912CD17C0190B
:104B50006941A702A415CD17C9196C41DD1780184A
:104B600059416C413E22CD17AC4208D000090E07D6
:104B700030430909260731432411043AF3E7FFF7CC
:104B8000C4FEF0BD02490020F0BD02490020F0BD86
:104B90000000F0FF0000F07FAAB800006BDE1300F9
:104BA000A3EF0F0021170B00F34B98BFEC23F31971
:104BB000D6104DCDE3FB470E7AB9BC8ADBC189071D
:104BC000CC542C021846E103053083E7B029F801E4
:104BD0001E1FE0874505FE00249E41ACA9807F0092
:104BE0008117624515E03F00E610ABA902F81F00EF
:104BF0008858455500FE0F00C4AAA90A80FF070087
:104C000056455501E0FF0300ABA92A00F8FF01005B
:104C100045550500FEFF0000AAAA0080FF7F0000A6
:104C2000551500E0FF3F0000AB0200F8FF1F000039
:104C3000550000FEFF0F00000B0080FFFF07000083
:104C40000100E0FFFF0300000000F8FFFF0100008B
:104C50000000FEFFFF0000000080FFFF7F0000005B
:104C600000E0FFFF3F00000000F8FFFF1F00000012
:104C700000FEFFFF0F00000080FFFFFF07000000A5
:104C8000E0FFFFFF03000000F8FFFFFF010000004E
:104C9000FEFFFFFF00000000000000800000000099
:104CA000000000400000000051434343C9188C46F7
:104CB000110C83B24B4310B4040C614392B280B226
:104CC000504362431C041B0C001910BC59411304CF
:104CD000120CC018514161447047000048404140E7
:104CE000484000239C46114B5B68184700239C46B4
:104CF0000E4B1B6818470E4A936F9B0804D2002383
:104D00009C460A4BDB681847F0B5146E556E576F1A
:104D1000166FFFF7F4FF064A146655665767166765
:104D2000F0BD00239C46014B9B6818476818002083
:104D3000000000D0C10FC90700D54042002817D09D
:104D4000F44603B40B4B1B68984706BC81409E3861
:104D50004042803107D20B0607D04900490AC005FE
:104D60001043084360470130F8E7490A8902F5E734
:104D70007047000064180020034BDB6FFC461847A7
:104D80007CDFCD4E001000006818002000239C46F8
:104D9000014B1B6D184700006818002070B51323E5
:104DA0001E782A48FEF76AFB0500012E11D0012E5D
:104DB00009DDAB1E1B789B007F2B40DD2448802241
:104DC000290000F0A9F82348FEF750FB224B186099
:104DD00070BD1F485422290000F09EF81F4B1A880E
:104DE0001F4B9A421CD1A7239B011A881D4B9A4244
:104DF00016D11D4B1A881D4B9A4211D11C4B1A8893
:104E000094239B019A420BD11A4B1A881A4B9A424F
:104E100006D11A4B1A681A4B9A4201D1152307E0A2
:104E20001848FDF72DFA184C094A99008C500133A7
:104E30001F2BF8D9144B064A1362D361B7E7134B03
:104E4000134A14484221FDF783F9C0465346000037
:104E5000681800204C33000064180020EE29000080
:104E6000C40F0000C20D0000962B0000C0B500006A
:104E7000182B0000CC2A000010B50000FC2C00000C
:104E800051ED8764307A0010994E00102C88001084
:104E9000A88800106088001007B56046002800D17F
:104EA00000BE01880A0A0230DF2AFAD1C9B282089C
:104EB00004D3028840880004104300E00068024ADE
:104EC0005050039007BD000068180020C30FDB0797
:104ED00041000A0E07D0FF2A08D00909054A89189F
:104EE0001943400770471900002070470249C9184C
:104EF000FAE70000000000380000F07F01480421BC
:104F0000014B1847B00B00208D340010014B1B687B
:104F100018470000B00B0020014B5B6818470000E9
:104F2000B00B002010B50300080011001B68984763
:104F300010BD0000F8B507000D001600437D002BE2
:104F400002D0002400200CE00368110028009847DC
:104F50002DE03B7D10E03B68154802219847601C1E
:104F60000134B44214DA002CF3DD2B19013B1B7819
:104F70000D3B5A425341DBB22A5D0A2AF0D1002B85
:104F8000EED1A042E7DA3B68211A28189847E2E7F9
:104F9000B04203DA3B68311A28189847002E06DD24
:104FA000AD19013D2B780D3B5A4253413B75F8BD7D
:104FB0002089001070B505000368002B16D00C4B3B
:104FC0001C6805E0290004C92000FFF7B3FF24692D
:104FD000002C09D02368002BF9D0064B1B68002B4E
:104FE000F0D0A342F3D1EDE700232B6070BDC046A3
:104FF000181300202013002070B505000C000B686A
:10500000802B05D023685A1C2260E418257170BDDE
:105010000800FFF7CFFFF5E710B5002B02DB0260B9
:10502000436010BD024B034A03483F21FDF790F84F
:10503000107D0010248900102C7D001010B582B066
:105040000400FCF7EFFB02000B006846FFF7E4FFEB
:10505000009A019B22606360200002B010BD000036
:1050600070B582B0060014001D00FA2292000023E1
:1050700006980021FFF718FE02000B0012196B4181
:10508000002B09DB6846FFF7C7FF009A019B3260DF
:105090007360300002B070BD01225242004BF1E754
:1050A000FFFFFF7F30B585B004000D0002A8FFF7B9
:1050B000C5FF029A039B00952000FFF7D1FF200057
:1050C00005B030BD00B583B0FA2189006846FFF70E
:1050D000E9FF009A019B024802F062FC03B000BDA8
:1050E000000C002010B5024802F01AFC10BDC046AA
:1050F000000C0020F0B5CE46474680B583B00600D0
:105100000D0090461C00FFF7DDFF81466B1C05D0AB
:10511000002C08D0194F1A4B1C6807E0300002F031
:10512000C5FB0500F4E7174FF5E72469002C17D0FD
:105130002368002BF9D0144B1B68002B01D0A3422D
:10514000F3D12A0031002000B8474346002BECD0B1
:105150006B46D91D0A230B7001222000B847E4E7F3
:105160004B46002B07D16B1E9D41E8B203B0C0BC7B
:10517000B946B046F0BDFFF7B5FFF4E7254F001084
:1051800018130020354F001020130020094A01E0B9
:1051900010331A001368002B08D08342F8D100297D
:1051A00007D1036913600023036102E0002900D0E6
:1051B000106070471813002010B5064B1C6801E002
:1051C00098472469002C03D06368002BF8D1F8E7D6
:1051D00010BDC0461813002070B5050002F066FB34
:1051E00004000023012201002800FFF783FFFFF7DE
:1051F000E3FF200070BD000070B5A2B004000E00F7
:10520000FFF760FF0500002301930A4833002200E6
:1052100001A9FEF713F9040001A8FFF7CBFEFFF781
:10522000CBFF002D02D1200022B070BDFFF75AFF46
:10523000F9E7C046F94F00100FB400B583B004A9D8
:1052400001C90191FFF7D8FF03B008BC04B01847AB
:1052500010B500F0ADF910BD70470000014B002201
:105260001A7070479A1900204B79FF2B0CD18B795B
:10527000002B0BD1CB79012B0AD1082A0AD98A78C5
:10528000054B1A70092000E0002070470020FCE761
:105290000020FAE70020F8E79A1900200120704763
:1052A00070B504000D000348FEF7E0F80300290084
:1052B000200098475542000010B5012926D11179E8
:1052C00053791B020B43124909788B4201D000200D
:1052D0001DE05378012B03D0022B10D0002016E0E4
:1052E0009178D3781B021943DB0506D54B0A0120C0
:1052F00098407F231940FFF7D3FF0020F9E764228D
:1053000000210020FCF7E6FE012000E0012010BD96
:105310009A19002001230370004870473C8900104F
:1053200010B50A784B781B0213438A7812041A438B
:10533000CB781B0613439622D200934200D010BDB7
:1053400000210800FFF7ACFF024B1860024B196008
:105350007047C0467C1200208012002010B5002B40
:1053600002DB0260436010BD024B034A03483F2149
:10537000FCF7EEFE107D0010CC8900102C7D001093
:1053800010B582B00400FCF74DFA02000B0068462D
:10539000FFF7E4FF009A019B22606360200002B0E7
:1053A00010BD000070B582B0060014001D00FA2286
:1053B0009200002306980021FFF776FC02000B0004
:1053C00012196B41002B09DB6846FFF7C7FF009AF3
:1053D000019B32607360300002B070BD0122524206
:1053E000004BF1E7FFFFFF7F30B585B004000D00F3
:1053F00002A8FFF7C5FF029A039B00952000FFF764
:10540000D1FF200005B030BD10B582B00400049873
:10541000059912184B41002B09DB6846FFF79EFFE8
:10542000009A019B22606360200002B010BD01223F
:105430005242014BF1E7C046FFFFFF7F10B5024B20
:105440001878FBF785F910BD9B19002070B5124B39
:105450001B68002B1BD0EFF3108272B6196800296D
:10546000FCD0BFF35F8F0C4842600C4B00211970D9
:105470000368BFF35F8F196082F310880024002552
:10548000074B1878FBF764F92000290070BDFA2457
:10549000A4000025F4E7C046441700209C19002012
:1054A0009B190020F0B587B0040016001D000EAB5C
:1054B0001F7804A8FFF764FF049A059B00960195E6
:1054C00004A8FFF7A1FF049A059B02970D9901918B
:1054D0000C9900912000FBF7C9FF07B0F0BDF0B5B3
:1054E000C64600B584B00500884616001F000AAB0A
:1054F0001C78FBF7A5FF0294019700962A0043460B
:10550000FFF7D0FF04B080BCB846F0BD10B582B044
:105510001B48002102F01CFA002827D1194B1B68F8
:10552000002B2BD0EFF3108272B619680029FCD043
:10553000BFF35F8F13494A60134803780124634027
:10554000DBB2012404700968BFF35F8F002008609C
:1055500082F31088002B11D00C4A01230093002302
:10556000FA2080000021FFF7BAFF07E001200021A8
:10557000404201F08BF8024802F0D2F902B010BDAF
:105580006C190020441700209C1900204D54001075
:1055900010B5054B1868002804D0044B1968002288
:1055A00000F09EFD10BDC0467C120020801200203D
:1055B00010B582B0D0231B061C68FBF741FFFCF737
:1055C0004BF8A04231D1D0231B061A78234B1A7016
:1055D000234B1B7801F02EFD2248FBF7CAFB01206C
:1055E000FBF754FB204C20702049FF231840FBF7A9
:1055F000D1F820780121FBF7A3F80520FBF7B8F8D4
:10560000041E18D01A4900220520FBF7EDF8FAF71E
:10561000EBFF0100174B1800FBF7C8FB16480121F0
:10562000FFF7B4FD200002B010BD144B144A15481A
:10563000B521FCF78DFD144A012300930023FA20C5
:1056400080000021FFF74BFFC443E40F0948082204
:105650000021FFF75BFC002CE4D0DFE79D19002060
:105660005C8F00106C1900209B1900200D55001054
:105670003D54001044170020C00B0020187C00107F
:10568000BC890010548900104D54001010B5002042
:1056900001F0FAF910BD000030B583B004000D0030
:1056A000FFF7F4FF002830D0002001F009FA0028AD
:1056B0002ED0FA2189006846FFF796FE009A019BDA
:1056C000164802F06DF9002825D0FFF7DFFF00280B
:1056D00004D0002001F0F4F900280CD101200021B1
:1056E000404200F0D3FF032464420C4802F018F952
:1056F000200003B030BD2A002100002001F0ECF9A9
:10570000041EF2D103246442EFE703246442EFE76E
:1057100003246442ECE703246442E9E76C190020A7
:10572000F0B5C64600B582B080460D00FA2189006A
:105730006846FFF759FE009A019B2C4802F030F9A9
:10574000002803D102B080BCB846F0BDFFF79EFF31
:10575000002849D1264B00200021186059602348B9
:1057600002F0DEF8EEE701200021404200F08EFF5B
:10577000002001F0C5F9FFF789FF0028EFD00020D5
:1057800001F036FA002820D0AC42E8DA2E1B0020C7
:1057900001F02EFA0200864200DC3200002AE2D03C
:1057A00043461919002001F007FA060001200021E4
:1057B000404200F06BFF002001F0A2F9A419FCF7B1
:1057C00031F80B4B18605960DEE7FCF72BF8084BFB
:1057D0001E685F68074A002392197B419942BED830
:1057E000D2D19042D0D9BAE70024CDE76C1900207D
:1057F000200D002020A10700004870477C8A00107F
:1058000000487047288A001010B50400154B1B781B
:10581000002B0ED0002C11D1134B144A5A800123B7
:1058200001335B009BB21048C022920013430380F7
:1058300010BD0C48112100F025F8EBE7052C0ED81F
:105840000B4BA400E4580023122BE9D8E15C00299B
:10585000E6D00133044A58008152DBB2F4E700205D
:10586000E6E7C04684190020F01200200904000079
:10587000108A001010B5024800F032F810BDC04682
:105880005C17002010B5002901D000230AE0104B5E
:10589000104A11481F31FCF75BFC00220DE0373243
:1058A000C25401334A1E9A420ED90F2B0CD85A0803
:1058B0000A4CA45CDA07F0D4042214410F222240DF
:1058C000092AECDC3032EBE7C0180023037010BD6E
:1058D000908A0010E08A0010988A00105C1700205F
:1058E00070B588B0040004AD00260496092200219A
:1058F00005A8FFF70BFB00960922002101A8FFF77E
:1059000005FB4B232B700D226946280002F000F89E
:10591000002304E05A1D69468A5CE2540133072BD8
:10592000F8DD08B070BD000002007F201040D209F1
:10593000400080184001014BC0187047241300201C
:1059400010B5038B3F333F229343022915D0124CED
:105950002268C260D31823609C0610D10F4C6240AD
:10596000634080246401A3420FD889061143802339
:105970001B060B434268136010BD5B00E7E7084B52
:10598000084A09485421FCF7E3FB084B054A06483E
:105990005621FCF7DDFBC046281700200000105000
:1059A0006C8C0010848D00109C8C0010F08C00100A
:1059B000F8B505000E001400FFF7B6FF7F232B405B
:1059C000EF0985707A427A4142700022C2700683E4
:1059D000C476012F0DD0DA0012498C4662448260F1
:1059E000826800211160002B09D143600E4BC36017
:1059F000F8BDDA000D498C4662448260F0E7012F61
:105A000009D0013BDB000A4A94466344436021000D
:105A1000FFF796FFECE7013BDB00064A9446634440
:105A20004360F4E7840010500001105080001050D3
:105A30000C0010500800105070B584B006000D0026
:105A400014000C22002101A8FFF760FA6B461E71BA
:105A500003236A4653710295210001A801F088FFD3
:105A600004B070BD70B50C001500FFF75DFF2A0093
:105A7000210000F00DF970BD10B5002804D10121FE
:105A80000520FAF75DFE10BD034B044AD5210448FA
:105A90004900FCF75DFBC046388D0010748D001086
:105AA0009C8C001010B5002805D100220021802018
:105AB000FFF7D8FF10BD034B034ADB210348490021
:105AC000FCF746FB388D0010648D00109C8C001094
:105AD000024B80225202DA647047C0460020115007
